:020000040800F2
:10000000D016002001010008211300080D0C000883
:100010001D1300085D0A00084B28000800000000BE
:10002000000000000000000000000000391F000870
:100030007B0A000800000000051A00087D22000865
:100040001B0100081B0100081B0100081B01000820
:100050001B0100081B0100081B0100081B01000810
:100060001B0100081B0100081B0100081B01000800
:100070001B0100081B0100081B0100081B010008F0
:100080001B0100081B0100081B0100081B010008E0
:100090001B0100081B0100081B0100081B010008D0
:1000A0001B0100081B0100081B0100081B010008C0
:1000B000E12200081B0100081B0100081B010008C9
:1000C0001B0100081B0100081B0100081B010008A0
:1000D0001B01000829250008BD2500081B01000898
:1000E0001B0100081B0100081B010008DFF80CD0F1
:1000F00000F034FB00480047F1340008D01600201F
:100100000648804706480047FEE7FEE7FEE7FEE7B1
:10011000FEE7FEE7FEE7FEE7FEE7FEE781220008D6
:10012000ED000008CAB2401E10F8011F8A4202D03A
:100130000029F9D100207047F0B480EA0102D40F01
:100140004200B2EB410F02D20246084611464A0075
:1001500042D0C30DDDB2C1F3C752AD1A202D35DA3E
:10016000C1F3160141F4000204B15242C5F1200668
:1001700002FA06F12A411044B3EBD05F23D0C4B198
:10018000012DA0EBC35009DCF0BC4FF0004202EAA5
:10019000C352DBB200F5000000F0FAB8400000F1F5
:1001A000807000EBC350A0F1807040EAD17049002C
:1001B00009E0490841EAC071A0EBC35000F5000016
:1001C000400800EBC350F0BC00F0D9B861420122F6
:1001D00002EB4101001BF6E7F0BC704781F00041E3
:1001E000AAE780F00040A7E780EA010210B502F01C
:1001F0000043400022D04A001FD0010E01EB1261E3
:10020000C0F35600C2F3560240F4000042F400026C
:10021000A0FB022000047F39140400D0401C50EAE7
:10022000124001D44000491EC2B20C0604EBD010AB
:10023000401C4008802A02D003E0002010BD20F0BE
:100240000100002900DA0020184310BD30B480EA14
:10025000010202F0004530F0004221F0004013D0CE
:1002600090B1C30DD40DC2F31601C0F31600E41A09
:1002700041F4000140F400027D34914201D3641C3A
:1002800000E04900002C02DA30BC002070474FF437
:1002900000000023914201D3891A034340084FEA2A
:1002A0004101F7D151B1914202D14FF0004105E037
:1002B00002D24FF0010101E06FF0010103EBC450E5
:1002C000284430BC00F05BB820F00040C10DC0F302
:1002D000160040F400007F2901DA002070479629BB
:1002E00003DCC1F19601C8407047963988407047D9
:1002F00030B50B46014600202022012409E021FAF6
:1003000002F59D4205D303FA02F5491B04FA02F5F2
:100310002844151EA2F10102F1DC30BD2DE9F05F89
:100320000546002092469B46884606468146402464
:100330001BE0284641464746224600F030FA534625
:100340005A46C01A914110D311461846224600F071
:1003500017FA2D1A67EB01084F46224601200021AB
:1003600000F00EFA17EB00094E41201EA4F1010423
:10037000DFDC484631462A464346BDE8F09F002967
:10038000A8BF7047401C490008BF20F0010070471B
:1003900010B4B0FA80FC00FA0CF050EA010404BF7B
:1003A00010BC704749B1CCF1200421FA04F411FAD1
:1003B0000CF118BF012121430843A3EB0C01CB1D15
:1003C0004FEA00614FEA102042BF002010BC704786
:1003D00000EBC35010440029A4BF10BC7047401C60
:1003E000490008BF20F0010010BC70472DE9FE4F06
:1003F000804681EA0300C00F0C46009021F00041C6
:1004000023F00045B8EB0200A94105D24046214641
:1004100090461C460B46024623F00040104347D04E
:10042000270DC7F30A00C3F30A510290401A019046
:1004300040286BDAC3F3130040F4801B0098924607
:1004400020B10023D2EB030A63EB0B0B0198594652
:10045000C0F14002504600F093F906460D46504662
:100460005946019A00F0ABF910EB080061410024F5
:1004700087EA115284EAE7731A4340D0009A62B3C4
:10048000019A012A4FEA075215DC001B61EB0201B9
:100490004FF0004202EA0752CDE90042001C41F54C
:1004A000801132462B4600F0ABF903B0BDE8F08F67
:1004B00040462146F9E7001B61EB0201001C41F5B3
:1004C000801300185B412018A2F5001747EB0301C9
:1004D00040EAD570B6196D4111E06D084FEA360655
:1004E00045EAC0754FEA0752001B61EB0201001C90
:1004F00041F5801149084FEA300000195141324658
:100500002B4603B0BDE8F04F00F06BB90098012214
:1005100040000023D0EB020263EBE0730098214619
:100520004FEAE074B8EB000061EB0401E9E783F007
:1005300000435BE781F0004158E72DE9FE4F81EA77
:10054000030404F0004421F0004100944FF0000B3C
:1005500023F0004350EA01045ED052EA03045BD06A
:10056000C3F30A54C1F30A552C44A4F2F3340194A2
:10057000A0FB0254C1F3130141F48011C3F3130330
:1005800043F4801301FB024400FB034E840A970AE4
:1005900044EA815447EA8357A4FB076802958D0A11
:1005A00005FB07854FEA932C04FB0C542705029D9D
:1005B0004FEA065847EA1637B5EB08056EEB070C0D
:1005C000870E920E47EA811742EA8312A7FB0201C7
:1005D000B6EB0B0164EB00042B0D43EA0C335E1801
:1005E00044EB1C50DA465146E7FB0201C5F3130405
:1005F0004FEA0B3343EA14534FEA0432019C43EAB7
:100600000603A4F10C040294009CCDE900B400F0B0
:10061000F7F803B0BDE8F08F00200146F9E72DE9B7
:10062000F04D81EA030404F0004B21F0004514462C
:100630004FF0000A23F0004150EA050220D054EAAE
:1006400001021DD0C5F30A570246C5F31303C1F3D7
:100650001300C1F30A5640F4801543F48013A7EB4E
:100660000608101BD64608F2FD3873EB050002D3CE
:1006700008F1010801E092185B41B8F1000F03DABC
:1006800000200146BDE8F08D00204FF480110646A1
:1006900084460EE0171B73EB050705D3121B63EBB3
:1006A000050306434CEA010C49084FEA3000921852
:1006B0005B4150EA0107EDD152EA030012D082EA11
:1006C000040083EA0501084305D0101BAB4106D2A4
:1006D0000122002306E000224FF0004302E06FF009
:1006E000010253101AEB06004CEB085110EB0A0004
:1006F00041EB0B01BDE8F04D00F073B8C1F30A52B5
:10070000C1F3130140F2FF3341F480119A4202DA3F
:1007100000200146704740F233439A42A2F233422E
:1007200002DC524200F03BB800F02AB830B5041E9B
:1007300071F1000404DB4FF00044404264EB01011E
:10074000141E73F1000405DB1C464FF000435242B7
:1007500063EB0403994208BF904230BD064C074D3D
:1007600006E0E06840F0010394E807009847103481
:10077000AC42F6D3FFF7BEFCF83600081837000885
:10078000202A04DB203A00FA02F100207047914051
:10079000C2F1200320FA03F3194390407047202A46
:1007A00004DB203A21FA02F00021704721FA02F31B
:1007B000D040C2F120029140084319467047202AD8
:1007C00006DBCB17203A41FA02F043EAE07306E079
:1007D00041FA02F3D040C2F1200291400843194689
:1007E000704710B5141E73F1000408DA401C41F183
:1007F000000192185B411A4301D120F0010010BDA5
:100800002DE9F04D92469B4611B1B1FA81F202E01A
:10081000B0FA80F220329046FFF7B2FF04460F464E
:1008200040EA0A0041EA0B0153465A46084313D0F6
:10083000114653EA010019D0C8F140025046FFF7B3
:10084000AEFF05460E46504659464246FFF798FF12
:10085000084305D0012004E020463946BDE8F08D6C
:100860000020054346EAE0762C4337430A986305A7
:10087000E40AA0EB08000022FD0A44EA47540A30CB
:1008800002D500200146E9E7010510196941DDE9BB
:10089000084500196941BDE8F04DA2E770B58D1813
:1008A00010F8014B14F0030201D110F8012B2311B1
:1008B00006D110F8013B03E010F8016B01F8016B61
:1008C000521EF9D1ABB110F8012B04F00C048A1AB6
:1008D0000C2C03D0A2EB84129B1C08E010F8014BF7
:1008E000A2EB0422F8E712F8014B01F8014B5B1E62
:1008F000F9D5A942D4D3002070BD000008B501216C
:10090000042001F081F910208DF803000002ADF8F9
:10091000000003208DF802006946044800F0DEF86C
:100920004FF48051014800F06FF908BD0008014004
:1009300010B54FF48051024800F066F910BD000078
:100940000008014010B54FF48051024800F05AF9F8
:1009500010BD00000008014010B501F0EFFA0128B9
:100960003CD12C4800782C49097888421ED129486E
:10097000407829494978884218D100F015FD27A20E
:100980000021084600F09EFD00F0E0F9254801F046
:1009900053FB41F2883000F071F8002001F04CFB6D
:1009A00000202149087001F043FC17E000F0FCFC36
:1009B0001EA20021084600F085FD00F0B5F9FFF702
:1009C000C1FF40F2DC5000F059F800F0A5F9FFF744
:1009D000AFFF00201449087001F02AFC1548007888
:1009E0002A2814D100F0E0FC13A20021084600F0F0
:1009F00069FD14A20221002000F064FD14A204216C
:100A0000002000F05FFD00200749087001E000F0C1
:100A100093F910BD16000020A90F0020B3C9B9A694
:100A20000000000000003443980F0020B4EDCEF326
:100A3000000000008C0F00204B3120C0B6D1C02038
:100A4000200000004B3320CBA2BFA82020000000D4
:100A50004B3620C3DCC2EB202000000000BFFEE7C5
:100A600070B505460C46284601F048F9064626EAC8
:100A70000401284601F0ECFE70BD704700B5034646
:100A800003E04FF47A7000F005F8181EA3F101039B
:100A9000F7D100BD00EBC001C9004FF0E022516169
:100AA000002191610521116100BF4FF0E02109692A
:100AB00001F480310029F8D004214FF0E0221161C7
:100AC00070470000044900E0521C11F8013B002B64
:100AD000FAD1500870470000700E00202DE9F04157
:100AE000024600250026002000230024002791F85C
:100AF00003C00CF00F0591F803C00CF0100CBCF112
:100B0000000F03D091F802C04CEA050591F800C02F
:100B1000BCF1000F31D0146800202BE04FF0010C25
:100B20000CFA00F3B1F800C00CEA03069E4220D193
:100B300083004FF00F0C0CFA03F7BC4305FA03FCDB
:100B40004CEA040491F803C0BCF1280F06D14FF021
:100B5000010C0CFA00FCC2F814C00AE091F803C0C2
:100B6000BCF1480F05D14FF0010C0CFA00FCC2F8A3
:100B700010C0401C0828D1D31460B1F800C0BCF1EB
:100B8000FF0F34DD546800202EE000F1080C4FF018
:100B9000010808FA0CF3B1F800C00CEA03069E4203
:100BA00021D183004FF00F0C0CFA03F7BC4305FA78
:100BB00003FC4CEA040491F803C0BCF1280F05D1F2
:100BC00000F1080C08FA0CF8C2F8148091F803C080
:100BD000BCF1480F07D100F1080C4FF0010808FAEA
:100BE0000CF8C2F81080401C0828CED35460BDE831
:100BF000F0810246002093680B400BB1012000E019
:100C000000207047416170470161704700BFFEE7F7
:100C1000002001E0411CC8B20A28FBDB704700003D
:100C200008B50121082000F0EFFF4FF48070ADF807
:100C3000000003208DF8020014208DF8030069469F
:100C40000648FFF74BFF4FF40070ADF8000069460F
:100C50000248FFF743FF00F01DF808BD000C0140FB
:100C600010B50120094908600949C1F8A001FFF742
:100C7000CFFF002005490860FFF7CAFF00200449A4
:100C8000C1F8A001FFF7C4FF10BD0000A4812142FC
:100C90000080214210B50020054908600120054967
:100CA000C1F8A001FFF7B4FF01200149086010BDA1
:100CB000A48121420080214210B501200D49086025
:100CC000FFF7A6FF01200C49C1F8A001FFF7A0FF24
:100CD0004FF400710948FFF78CFF08B1012400E0D0
:100CE000002400200349091F0860FFF791FF2046F8
:100CF00010BD0000A481214200802142000C01406F
:100D000010B507220249034801F002F910BD0000A6
:100D1000720F002040FF000810B502210148FFF7C4
:100D200071FF10BD0008014010B502210148FFF716
:100D30006BFF10BD0008014010B54FF480710248F0
:100D4000FFF760FF10BD00000008014010B54FF430
:100D500080710248FFF758FF10BD000000080140F5
:100D600008B50121042000F04FFF10208DF803008A
:100D70004FF48170ADF8000003208DF80200694641
:100D80000448FFF7ABFE4FF481710248FFF73AFFCA
:100D900008BD00000008014010B50446412C24D1D4
:100DA00008210846FFF75CFE3D21112001F050FDAF
:100DB0008621172001F04CFD7F21262001F048FDFF
:100DC0001E212D2001F044FD00212C2001F040FDCA
:100DD0008D212A2001F03CFD3E212B2001F038FD21
:100DE0000220FFF757FE00F0C5FC10BD08B5012139
:100DF000182000F009FF4FF40050ADF8000010205B
:100E00008DF8030003208DF8020069463948FFF78A
:100E100065FE4FF40040ADF8000010208DF803008F
:100E200003208DF8020069463248FFF757FE022082
:100E3000ADF8000010208DF8030003208DF80200AB
:100E400069462D48FFF74AFE10208DF80300032065
:100E50008DF802004FF40060ADF8000069462648A6
:100E6000FFF73CFE4FF40040ADF8000028208DF85D
:100E7000030003208DF8020069461F48FFF72EFE8D
:100E80004FF48040ADF8000028208DF803000320C7
:100E90008DF8020069461848FFF720FE4FF4005015
:100EA000ADF8000028208DF8030003208DF8020023
:100EB00069461148FFF712FE28208DF80300032031
:100EC0008DF802004FF48050ADF8000069460A48E2
:100ED000FFF704FE4FF40050ADF8000010208DF82D
:100EE000030003208DF8020069460448FFF7F6FD71
:100EF00008BD000000100140000C0140001C014032
:100F000010B5FF244FF40051F948FFF77DFE4FF470
:100F10000041F748FFF778FE0221F648FFF774FE1C
:100F20004FF40061F348FFF76FFE4FF40041F148C2
:100F3000FFF75FFE012814D04FF48041ED48FFF722
:100F400058FE01280DD04FF40051EA48FFF751FE3A
:100F5000012806D04FF48051E648FFF74AFE0128E9
:100F60007ED11420FFF78AFD4FF40041E148FFF7DE
:100F700040FE012814D04FF48041DE48FFF739FECF
:100F800001280DD04FF40051DA48FFF732FE012856
:100F900006D04FF48051D748FFF72BFE01287DD1B2
:100FA000D54800780028FAD10120D34908704103C0
:100FB000CF48FFF729FE4FF40041CD48FFF722FE4E
:100FC0000221CC48FFF71EFE4FF40061C948FFF72D
:100FD00019FE4FF40041C748FFF70BFEC7490870E0
:100FE0004FF48041C348FFF704FEC54908704FF431
:100FF0000051C048FFF7FDFDC24908704FF4805111
:10100000BC48FFF7F6FDC0490870BC4800780128CD
:1010100009D1BB48007830B9BA48007818B90846F9
:10102000007800B94124B548007850B9B448007838
:10103000012806D1B348007818B9B348007800B940
:101040004224AE48007850B9AD48007838B9AD4870
:101050000078012803D1AC48007800B9432400E0AF
:1010600054E1A648007850B9A548007838B9A54899
:10107000007820B9A4480078012800D144244FF416
:1010800000519B48FFF7BEFD4FF400419848FFF721
:10109000BBFD02219748FFF7B5FD00E03AE14FF4B0
:1010A00000619448FFF7AEFD4FF400419148FFF70F
:1010B000A0FD924908704FF480418E48FFF799FDDA
:1010C0008F4908704FF400518A48FFF792FD8D490F
:1010D00008704FF480518748FFF78BFD8A490870EC
:1010E00086480078012809D18548007830B98548BC
:1010F000007818B90846007800B903247F480078C2
:1011000050B97F480078012806D17E48007818B988
:101110007D48007800B906247848007850B97848AE
:10112000007838B977480078012803D176480078EC
:1011300000B909247148007850B97148007838B96D
:101140007048007820B970480078012800D1232425
:101150004FF400516648FFF755FD4FF400416448D5
:10116000FFF750FD02216348FFF74EFD4FF4006189
:101170006048FFF747FD4FF400415E48FFF739FD37
:101180005E4908704FF480415A48FFF732FD5C49D0
:1011900008704FF400515748FFF72BFD594908706C
:1011A0004FF480515348FFF724FD574908705348C6
:1011B0000078012809D15248007830B951480078A8
:1011C00018B90846007800B902244C48007850B994
:1011D0004B480078012806D14A48007818B94A4897
:1011E000007800B905244548007850B94448007893
:1011F00038B944480078012803D14348007800B941
:1012000008243E48007850B93D48007838B93D4838
:10121000007820B93C480078012800D100244FF420
:1012200000513348FFF7EEFC4FF400413048FFF720
:10123000E9FC02212F48FFF7E5FC4FF400612D483F
:10124000FFF7E2FC4FF400412A48FFF7D2FC2B499C
:1012500008704FF480412748FFF7CBFC28490870FD
:101260004FF400512348FFF7C4FC264908704FF49F
:1012700080512048FFF7BDFC234908701F480078C3
:10128000012809D11E48007830B91E48007818B9E5
:101290000846007800B901241848007850B9184869
:1012A0000078012806D11748007818B91648007848
:1012B00000B904241148007850B91148007838B9B1
:1012C00010480078012803D10F48007800B907249E
:1012D0000A480078F0B90A480078D8B90948007877
:1012E000C0B909480078012814D12A2412E000006E
:1012F00000100140000C0140600F00205C0F002036
:101300005D0F00205E0F00205F0F002000200249CB
:101310000870FF24204610BD600F002000BFFEE7CC
:101320007047000070B5002100230F22C47804B379
:10133000154C246804F4E064C4F5E064210AC1F1AA
:101340000403CA40447804FA03F18478144021432A
:1013500009010E4C0678A155047804F01F050124FC
:10136000AC4005786D11AD0005F1E025C5F80041F0
:1013700009E0047804F01F050124AC40044D067810
:10138000761145F8264070BD0CED00E000E400E069
:1013900080E100E002490143024A11607047000009
:1013A0000000FA050CED00E010B5002000F001F897
:1013B00010BD70B50646002415E004F1B001C8B2B6
:1013C00001F08AFA002001F087FA102001F084FA77
:1013D000002504E0304601F095FA681CC5B2822D64
:1013E000F8DB601CC4B2082CE7DB70BD10B5FFF75A
:1013F00017FCAE2001F070FA002001F06DFA102009
:1014000001F06AFA402001F067FAB02001F064FAB6
:10141000812001F061FAFF2001F05EFAA12001F0C5
:101420005BFAA62001F058FAA82001F055FA3F20F7
:1014300001F052FAC82001F04FFAD32001F04CFA23
:10144000002001F049FAD52001F046FA802001F091
:1014500043FAD82001F040FA052001F03DFAD920E6
:1014600001F03AFAF12001F037FADA2001F034FA0B
:10147000122001F031FADB2001F02EFA302001F0C9
:101480002BFA8D2001F028FA142001F025FAAF2064
:1014900001F022FA10BD70B504460D4605F1B00109
:1014A000C8B201F019FAA11CC1F3031141F01000F8
:1014B00001F012FAA11C01F00F0141F0010001F04E
:1014C0000BFA70BD2DE9F047074688461646002501
:1014D00080E03078A02843DD00253AE0702F04DD5D
:1014E000002708F1020000F0FF0830783C4911F8AD
:1014F000151088422CD17078012101EB4501384A42
:10150000515C884224D141463846FFF7C4FF00248D
:1015100006E004EB4511334A505C01F0F3F9641C1A
:10152000102CF6D308F10100C1B23846FFF7B3FF23
:10153000002407E004EB451110312A4A505C01F009
:10154000E1F9641C102CF5D307F11000C7B204E0D8
:101550006D1C254800688542C0D300BFB61C39E029
:101560007A2F04DD002708F1020000F0FF0831782F
:101570001E48FEF7D7FD8146B9F1000F29D041463C
:101580003846FFF788FF002409E099F80010203959
:1015900004EB0111164A505C01F0B4F9641C082CEC
:1015A000F3D308F10100C1B23846FFF774FF0024FD
:1015B0000AE099F80010203904EB011108310C4AB7
:1015C000505C01F09FF9641C082CF2D307F108006D
:1015D000C7B2761C307800287FF47BAFBDE8F08777
:1015E000700E002010060020580F0020F70E00207B
:1015F000200000202DE9F04107460E4690460025C8
:101600000024A8F12000C5B2812F02DD0027B01C04
:10161000C6B231463846FFF73EFF002407E004EB30
:1016200005110E4A505C01F06DF9601CC4B2082C23
:10163000F5DB701CC1B23846FFF72DFF002408E02F
:1016400004EB05110831054A505C01F05BF9601CA0
:10165000C4B2082CF4DBBDE8F081000020000020BB
:101660002DE9F0470646894690461F46002422E0B1
:10167000381B401EC1B2102001F0CAFFB8FBF0F0C9
:1016800000F00F050A2D0ADA05F13001CAB208216F
:1016900001FB0461C8B24946FFF7ACFF09E005F160
:1016A0003701CAB2082101FB0461C8B24946FFF7FD
:1016B000A1FF601CC4B2BC42DADBBDE8F0870000C9
:1016C00000B589B00121C80200F09EFA0121042072
:1016D00000F09AFA18208DF823004FF40060ADF85E
:1016E000200003208DF8220008A91B48FFF7F6F917
:1016F0001A4800F073FE0020ADF81A00ADF816008D
:1017000044F61F60ADF818004720ADF81400002023
:101710008DF81C0005A9114800F0B4FE01A800F0E6
:10172000A1FE6020ADF804000020ADF80C000120FF
:10173000ADF806000020ADF80A0001A9074800F046
:1017400053FE0121054800F014FE0121034800F07A
:101750001CFE09B000BD000000080140002C014043
:1017600010B504462146024800F086FE10BD000078
:10177000002C014010B5142000F0C0FA044604F01B
:10178000030018B90321142000F074FC10BDF0B55B
:1017900087B00546002708210846FFF761F90021B8
:1017A0000D2001F055F880210E20FFF759F9932004
:1017B0008DF8080020208DF8090001A802AB022254
:1017C00002A900900C2000F01AF8064686B9002401
:1017D00007E002A8005D285502A8005D4740601C94
:1017E000C4B2042CF5DB02A8005DB84200D002268A
:1017F00080210E2000F03EFC304607B0F0BD2DE900
:10180000FE4F0646884691469A46DDF830B00220E3
:1018100002900020019000900C2E06D00E2E09D1CF
:10182000122001901020009005E0772001903020D8
:10183000009000E000BF00BF019840F0800102204E
:1018400001F006F880210420FFF70AF900210120A9
:1018500000F0FEFF80210A2000F00CFC002505E0CE
:1018600018F80510092000F0F3FF6D1C4D45F7D363
:101870003146012000F0ECFF0C2E03D180210D2019
:1018800000F0F8FB4FF47A7500BF042000F036FA40
:1018900004466D1E35B104F0010018B900982040CF
:1018A0000028F2D080210D20FFF7DAF895B306204A
:1018B00000F024FA00F01B0068BB002002900198A1
:1018C000204000F0010008B1012002900C2E24D12C
:1018D0000A2000F013FA04460C2000F00FFA00F082
:1018E00007072FB1601E07EBC000CBF8000002E035
:1018F000E000CBF8000004B90124122C00DD122412
:10190000002505E0092000F0F9F90AF805006D1C32
:10191000A542F7D301E00220029080210C2000F0C4
:10192000A9FB0021012000F093FF0298BDE8FE8F83
:1019300070B588B005460C4608210846FFF790F8B8
:1019400007210D2000F084FF0321142000F092FBFA
:101950008DF80C5002A803AB012203A900900C20C3
:10196000FFF74DFF06464EB90298102806D19DF8A4
:101970000C0020709DF80D00607000E002263046DB
:1019800008B070BD10B501211D48FFF73DF90120D9
:10199000FFF780F801211A48FFF734F90120FFF71B
:1019A00079F801211648FFF72FF90120FFF772F8A7
:1019B0000F21012000F04CFF00BF012000F09EF934
:1019C00000F010000028F8D10120FFF763F83D2156
:1019D000112000F03DFF1E212D2000F039FF0021D5
:1019E0002C2000F035FF8D212A2000F031FF3E2110
:1019F0002B2000F02DFF4021152000F029FF10BD05
:101A0000000C01407047000010B500F091F9012171
:101A10000648FFF7F9F810210548FFF7F5F8FFF73A
:101A2000B1FF4120FFF7B8F910BD0000000C0140E4
:101A30000008014010B555495220FFF779FF54497D
:101A400008700846007830B9022008705148FFF746
:101A50009EFE4F49087000244D48007800287BD135
:101A600002204B4908704B4800F086FB494800783B
:101A700049490978884227D14648407846494978FB
:101A8000884221D1434880784349897888421BD1D4
:101A90004048C0784049C978884215D1FFF784FC96
:101AA0003EA200212020FFF70DFD3F4800F0C4FAC0
:101AB000FFF74CF941F28830FEF7E0FF002000F01C
:101AC000BBFAFFF739F901246CBB3248007837497B
:101AD0000978884227D12F4840783449497888428C
:101AE00021D12C4880783149897888421BD12948F6
:101AF000C0782E49C978884215D1FFF755FC27A236
:101B000000212020FFF7DEFC274800F095FAFFF7C0
:101B10001DF941F28830FEF7B1FF002000F08CFA89
:101B2000FFF70AF9012494B9FFF73EFC20A2002137
:101B30002020FFF7C7FCFFF7F7F8FEF703FF40F29E
:101B4000DC50FEF79BFFFFF7E7F8FEF7F1FE002001
:101B50001A49087000F06CFB194800782A2813D144
:101B6000FFF722FC17A200210846FFF7ABFC18A2E2
:101B700002210020FFF7A6FC18A204210020FFF795
:101B8000A1FC00200D49087010BD00009A0F002034
:101B9000990F00209C0F0020A00F0020CBA2BFA80F
:101BA000B3C9B9A60000000000003443A40F002010
:101BB000CBA2BFA8CAA7B0DC00000000980F00208D
:101BC0008C0F00204B3120C0B6D1C0202000000077
:101BD0004B3320CBA2BFA820200000004B3620C3EF
:101BE000DCC2EB202000000029B1064AD269024382
:101BF000044BDA6104E0034AD2698243014BDA61A3
:101C0000704700000010024029B1064A9269024361
:101C1000044B9A6104E0034A92698243014B9A6142
:101C2000704700000010024030B50021002200245F
:101C300000232D4D6D6805F00C0121B1042905D05C
:101C4000082923D105E0294D056022E0274D0560D4
:101C50001FE0254D6D6805F47012234D6D6805F485
:101C60008034022505EB92421CB9214D5543056095
:101C70000BE01D4D6D6805F400351DB11C4D55433D
:101C8000056002E0194D5543056002E0174D0560FF
:101C900000BF00BF144D6D6805F0F0010909154D36
:101CA0006B5C0568DD4045600F4D6D6805F4E061D3
:101CB000090A104D6B5C4568DD4085600A4D6D6812
:101CC00005F46051C90A0B4D6B5C4568DD40C56089
:101CD000054D6D6805F44041890B074D6B5CC56887
:101CE000B5FBF3F5056130BD0010024000127A002B
:101CF00000093D00000000201000002070B50446DF
:101D00007E2000EA440040F0800510210748FEF7DD
:101D100079FF284600F0D2F800F0AAF80646102114
:101D20000248FEF771FF304670BD00000008014018
:101D300000B587B001210C20FFF766FF01210803E1
:101D4000FFF752FF1020ADF818008DF81B0003209C
:101D50008DF81A0006A92E48FEF7C0FE2020ADF827
:101D6000180010208DF81B0003208DF81A0006A91A
:101D70002748FEF7B3FE4020ADF8180004208DF888
:101D80001B0003208DF81A0006A92148FEF7A6FEC5
:101D90008020ADF8180010208DF81B0003208DF86E
:101DA0001A0006A91A48FEF799FE0120ADF818009E
:101DB00010208DF81B0003208DF81A0006A9154885
:101DC000FEF78CFE0020ADF804004FF48270ADF8F1
:101DD00006000020ADF808000220ADF80A0001203E
:101DE000ADF80C004002ADF80E003820ADF8100040
:101DF0000020ADF812000720ADF8140001A9064834
:101E000000F018F80121044800F008F807B000BD00
:101E100000080140000C01400030014021B102885F
:101E200042F04002028004E002884FF6BF731A407D
:101E30000280704710B50022028802F441520B88DC
:101E40004C8823438C882343CC8823430C89234329
:101E50004C8923438C892343CC8923431A43028032
:101E6000838B4FF2FF74234083830B8A038210BD60
:101E700070B500251CE06006040E20210E48FEF718
:101E8000C1FE1420FEF706FE40210B48FEF7B1FE0E
:101E9000012801D144F001041420FEF7FBFD2021AC
:101EA0000548FEF7B1FE1420FEF7F4FD681CC5B22C
:101EB000082DE0DB204670BD0008014070B50446E7
:101EC000002520E004F0800020B180210F48FEF7BB
:101ED0009BFE03E080210D48FEF794FE1420FEF7E0
:101EE000D9FD20210948FEF78DFE1420FEF7D2FD12
:101EF00020210648FEF788FE1420FEF7CBFD600681
:101F0000040E681CC5B2082DDCDB70BD0008014062
:101F100030B503460C461546002207E0184600F08F
:101F200008F824F812009B1C501C82B2AA42F5DB70
:101F300030BD0146088870477047000005480078AA
:101F4000012804D1002003490870012070470020B7
:101F5000FCE700001800002000B587B001218803CD
:101F6000FFF752FE01210420FFF74EFE18208DF8E6
:101F70001B004FF40070ADF8180003208DF81A0014
:101F800006A92148FEF7AAFD48208DF81B004FF452
:101F90008060ADF8180003208DF81A0006A91A48D1
:101FA000FEF79CFD4FF4165002900020ADF814008F
:101FB0000C20ADF812000020ADF81000ADF80E00B6
:101FC000ADF80C0002A9114800F0CAFB012240F252
:101FD00025510E4800F09EFB4FF4A060FFF7DAF9A0
:101FE00025208DF8040001208DF807008DF80500EC
:101FF0008DF8060001A8FFF795F90121034800F0CC
:1020000046FB07B000BD0000000801400038014059
:1020100010B504462146054800F013FC00BF80219E
:10202000024800F040FB0028F9D010BD00440040F9
:1020300010B5FFF745FB10BD2DE9F04104460A49F4
:102040002046FEF703F980460849FEF7CDF807461B
:102050000749FEF771F80646FEF736F985B22846BD
:10206000FFF77EFBBDE8F081000034430000FA4436
:102070000000FA4370B505460C462846FFF73EFEC1
:10208000064646EA0401284600F0E2FB70BD10B5A2
:1020900000F002F810BD00000CB500200190009087
:1020A0003348006840F480303149086000BF304850
:1020B000006800F4003000900198401C01900098E6
:1020C00018B90198B0F5A06FF1D12948006800F463
:1020D000003010B10120009001E000200090009835
:1020E000012843D12348006840F0100021490860CE
:1020F0000846006820F0030008600846006840F0C9
:10210000020008601A48406819494860084640685B
:1021100048600846406840F480604860084640686F
:1021200020F47C1048600846406840F4E81048609D
:102130000846006840F08070086000BF0C480068E6
:1021400000F000700028F9D00948406820F0030032
:10215000074948600846406840F00200486000BFF8
:102160000348406800F00C000828F9D10CBD0000BD
:1021700000100240002002403EB50546002446E023
:10218000285DC11700EB117109110DF814101DF82D
:102190001400092806DD1DF814003730C0B20DF810
:1021A000140005E01DF814003030C0B20DF8140022
:1021B000285DC11700EB11710911A0EB0111C9B223
:1021C000012202EB44020DF80210012000EB440052
:1021D0001DF8000009280CDD012000EB44001DF86B
:1021E00000003730C0B2012101EB44010DF80100BD
:1021F0000BE0012000EB44001DF800003030C0B2BD
:10220000012101EB44010DF80100601CC4B2042C53
:10221000B6DB00208DF80800694602A000F088FBBC
:102220003EBD000049443E3E3E25730D0A000000BD
:1022300010B5FFF7B9F808A200210846FFF742F9E8
:1022400008A202210020FFF73DF909A20421002085
:10225000FFF738F910BD00004B3120C0B6D1C020C7
:10226000200000004B3320CBA2BFA820200000009C
:102270004B3620C3DCC2EB2020000000704700007A
:1022800010B51348006840F0010011490860084685
:102290004068104908400E494860084600680E49E9
:1022A00008400B4908600846006820F48020086058
:1022B0000846406820F4FE0048604FF41F00886024
:1022C000FFF7E5FE4FF000600449086010BD000014
:1022D000001002400000FFF8FFFFF6FE08ED00E0EE
:1022E00010B50121880700F05FF870B10748008839
:1022F00040F40040054908800121880700F036F8C5
:1023000000214FF0804000F034F810BD1C00002088
:102310007FB505460C4601210846FFF765FCADF880
:102320000450ADF800400020ADF80600ADF8020002
:1023300069464FF0804000F0A5F801221146900751
:1023400000F043F80121880700F013F81C208DF8F5
:102350000C0000208DF80D0002208DF80E000120E9
:102360008DF80F0003A8FEF7DDFF7FBDCA43028290
:10237000704721B1028842F00102028004E0028825
:102380004FF6FE731A400280704731B1B0F8442016
:1023900042F40042A0F8442005E0B0F84420C2F323
:1023A0000E02A0F84420704730B5024600200023FA
:1023B0000024158A05EA0103958905EA010413B191
:1023C0000CB1012000E0002030BD1AB183890B431D
:1023D000838102E083898B438381704701894FF6B3
:1023E000F87211400181704770B50022002300246B
:1023F000058C4EF6FF7635400584038C8488828BED
:1024000048F6FF752A404FF6FF452A400D884FF6E3
:10241000FF7606EA05252A434DF6FF752B400D8908
:1024200006EA05352B434D8806EA05352B430B4D4F
:10243000A84202D00A4DA84208D14BF6FF752C40A5
:102440008D894FF6FF7606EA85152C4384808283BA
:10245000CD88A0F84050038470BD0000002C0140DE
:10246000003401400021018041808180C1800181D0
:1024700041818181C1817047A0F8401070478184FB
:1024800070470000002202881D4B98420ED01D4B61
:1024900098420BD0B0F1804F08D01B4B984205D02A
:1024A0001A4B984202D01A4B984204D14FF68F73C0
:1024B0001A404B881A43174B984207D0164B984244
:1024C00004D04FF6FF431A40CB881A4302808B8812
:1024D00083850B8803850A4B98420BD0094B9842A1
:1024E00008D00E4B984205D00D4B984202D00D4BB0
:1024F000984201D10B7A0386012383827047000042
:10250000002C01400034014000040040000800405D
:10251000000C00400010004000140040004001404A
:10252000004401400048014010B540F225511E48CA
:1025300000F0C6F8012836D11B4800F07DF9C4B27E
:102540001A48007840B9FF2C27D10120174908709C
:1025500000201749087020E014480078012810D1A5
:10256000144813490978445411480078401C104914
:1025700008700846007802280FDD02200B49087019
:102580000BE00A480078022807D1FE2C05D1002074
:102590000649087001200849087040F22551024898
:1025A00000F066F800BF10BD00380140190000209F
:1025B0001A000020160000201800002010B540F27C
:1025C0002551274800F07CF8002848D0244800F026
:1025D00033F9C4B22348008800F40040F0B9214820
:1025E0000088B0F5C87F13DA00214FF08040FFF774
:1025F00046FF1C48008818B901218807FFF7B9FE7B
:1026000018490888411C174A118017490C5405E0E5
:102610001448008840F4004012490880114800889E
:1026200008281CDB10480078FF2815D10E48407898
:10263000AB2811D10C488078CD280DD10A48C0783C
:10264000FE2809D10948FFF7F7FC41F28830FEF770
:1026500015FA0020FFF7F0FC00200249088010BDA9
:10266000004400401C000020B00F00200000344354
:1026700010B50022002340F66A14A14200D100BF29
:102680000A1201249440A3B2DC43048010BD21B19E
:10269000828942F40052828104E082894DF6FF7300
:1026A0001A408281704702460020B1F5007F00D1B8
:1026B00000BF13880B400BB1012000E000207047E1
:1026C00070B50246002400230025002040F66A165B
:1026D000B14200D100BFC1F3421501F01F03012632
:1026E00006FA03F3012D02D19689334006E0022D4C
:1026F00002D1168A334001E0968A33400C1201263B
:1027000006FA04F41688344013B10CB1012000E03D
:10271000002070BDF0B503460024002600250020EF
:1027200040F66A17B94200D100BF1846C1F34214FF
:1027300001F01F06012707FA06F5012C01D10C3024
:1027400004E0022C01D1103000E014301AB1076807
:102750002F43076002E00768AF430760F0BD000049
:102760002DE9F04786B005460E460024A24600BF7C
:10277000A1460027B08900B100BF2F462C8A4CF635
:10278000FF700440F08804432C82AC894EF6F310AD
:102790000440B08831890843718908430443AC81FF
:1027A000AC8A4FF6FF400440B0890443AC8201A8D4
:1027B000FFF73AFA1F48874202D1DDF810A001E086
:1027C000DDF80CA0A88900F4004040B10AEBCA0073
:1027D00000EB0A1031684900B0FBF1F807E00AEBA2
:1027E000CA0000EB0A1031688900B0FBF1F86420E0
:1027F000B8FBF0F004012009642101FB1089A889CD
:1028000000F4004040B1322000EBC900B0FBF1F011
:1028100000F00700044308E0322000EB09106421B7
:10282000B0FBF1F000F00F0004432C8106B0BDE8CE
:10283000F08700000038014001468888C0F3080096
:102840007047C1F308028280704700BFFEE70000B6
:1028500070B504460D467E2000EA44061021074864
:10286000FEF7D0F93046FFF729FB2846FFF726FB95
:1028700010210248FEF7C8F970BD000000080140B1
:1028800070B50446002520E004F0800018B1012056
:102890000F49086002E000200D490860FEF7B8F912
:1028A00001200B49091F0860FEF7B2F90020094911
:1028B000C1F8A001072D02D101200549086060067A
:1028C000040EFEF7A5F9681CC5B2082DDCDB70BD4F
:1028D000A48121420080214210B50446FEF7C0F9D0
:1028E0007820FFF7CDFFFEF7E7F90020FFF7C8FFDC
:1028F000FEF7E2F92046FFF7C3FFFEF7DDF9FEF72A
:10290000C9F910BD10B50446FEF7AAF97820FFF703
:10291000B7FFFEF7D1F94020FFF7B2FFFEF7CCF981
:102920002046FFF7ADFFFEF7C7F9FEF7B3F910BD7C
:102930000FB4054B10B503A9044A029800F0DAF869
:1029400010BC5DF814FB0000E1340008AC0F00205F
:1029500002E008C8121F08C1002AFAD17047704768
:10296000002001E001C1121F002AFBD170470000C6
:102970002DE9FF5F82B00021DDE90430020DDDF8B2
:1029800040B0034318D044F61050A2F2FF32424345
:102990001514119801281FD0A5EB0B00401C5FEA0D
:1029A000000A4FF000064E4FDFF83891B04650460F
:1029B00015D5CAF1000413E0119801244AA3012897
:1029C00001D16FEA0B010298119AC0E90031C0E908
:1029D000024206B0BDE8F09FCBF10000DFE70446FD
:1029E0000021404A491842EB0450CDE9001012E0A2
:1029F000E00707D032463B4640464946FDF79DFD7D
:102A00008046894632463B4610461946FDF795FDFD
:102A100006460F466410002CEAD1DDE90401DDE929
:102A20000023BAF1000F06DAFDF787FD42464B4658
:102A3000FDF783FD05E0FDF7F2FD42464B46FDF74D
:102A4000EEFD04460E460022284BFDF76FFE03D82C
:102A50004FF0FF30014607E00022254B204631466B
:102A6000FDF7C4FCFDF74AFE102409E0002C0ADB48
:102A70000A220023FDF752FC039B30321A55641ED4
:102A800050EA0102F2D1641C039AC4F11103144408
:102A9000119A012A03D0012208430DD10AE008430C
:102AA00004D000204FF0110B119072E7A3EB0B053F
:102AB0006D1E0DE05B4504DD4FF0000205F10105E0
:102AC00004E003DA4FF00002A5F10105002AECD082
:102AD00002981199C0E90231C0E9004579E7000088
:102AE000000014400000F03F300000000000F04300
:102AF0000000E03F2DE9FF4F95B09B468946064612
:102B000000250FE2252877D100242746F84A012125
:102B1000059400E0044316F8013F203B01FA03F05E
:102B20001042F7D130782A2811D06FF02F03307877
:102B3000A0F13002092A16D8059A44F0020402EBEB
:102B4000820203EB42021044761C0590EFE759F82D
:102B5000042B0592002A03DA504244F400540590F5
:102B600044F00204761C30782E2816D116F8010F96
:102B700044F004042A280DD06FF02F023078A0F121
:102B80003003092B09D807EB870302EB4303C7186F
:102B9000761CF3E759F8047B761C30786C280FD04C
:102BA00006DC4C2817D068280DD06A2814D104E020
:102BB000742810D07A280FD10DE044F400140AE0F4
:102BC00044F4801401E044F440147278824202D14B
:102BD00004F58014761C761C307866280BD013DC44
:102BE000582877D009DC002875D04528F6D046282B
:102BF000F4D047281AD19DE118E0632835D0642825
:102C000079D0652812D195E1702873D008DC672847
:102C1000F1D069286FD06E280DD06F2806D1B5E0AD
:102C200073282CD0752875D0782874D05A461799F7
:102C300090476D1C75E1C4F30250022809D00328A7
:102C40000DD0D9F8001004280DD00D6009F1040949
:102C500067E1D9F80010EA17C1E90052F6E7D9F8A0
:102C600000100D80F2E70D70F0E719F8041B8DF8E5
:102C7000001000208DF80100EA46012003E059F819
:102C800004AB4FF0FF3061074FF0000102D40DE0BC
:102C900008F101018846B9420FDA8045F8DB1AF8DD
:102CA00008100029F4D108E008F1010188468142AA
:102CB000FADB1AF808100029F6D105985B46A0EB5C
:102CC000080721463846179A00F094FA284400EB8A
:102CD000080507E04DE029E10DE01AF8010B5A461E
:102CE00017999047B8F10108F7D25B46214638465C
:102CF000179A13E142E00A220092C4F302524FF005
:102D0000000A022A08D059F804CB032A4FEAEC71D2
:102D10000AD00DE029E02AE009F1070121F00702BD
:102D2000F2E802C1914609E00FFA8CFC4FEAEC711F
:102D3000042A03D14FFA8CFC4FEAEC71002907DA20
:102D40000A460021DCF1000C61EB02012D2202E0B9
:102D5000220504D52B228DF80420012203E0E2078E
:102D600001D02022F7E7904659E00A2102E0102224
:102D70000DE010214FF0000A00910BE010224FF0FF
:102D8000000A44F004040827009203E008224FF0F0
:102D9000000A0092C4F30252022A05D059F804CB6B
:102DA0000021032A08D009E009F1070121F00702F8
:102DB000F2E802C1914605E01FFA8CFC042A01D119
:102DC0000CF0FF0C4FF00008220728D5702806D021
:102DD000009B83F0100353EA0A0305D00EE0402263
:102DE0008DF80420012208E05CEA010206D03022BE
:102DF0008DF804208DF8050002229046009B83F098
:102E0000080353EA0A030AD15CEA010201D162070E
:102E100005D530228DF804204FF001087F1E582878
:102E200004D034A003900EA802900DE036A0F9E77C
:102E300053466046009AFDF771FA84460398825C17
:102E40000298401E029002705CEA0100F0D10298E4
:102E500006A9081A00F1200A600702D524F480347C
:102E600000E00127574502DDA7EB0A0000E0002043
:102E700000EB0A01009005984144401A0590E003D8
:102E800006D45B462146179A059800F0B3F905442D
:102E9000002706E001A85A46C05D179990476D1CAF
:102EA0007F1C4745F6DBE0030CD55B462146179AAD
:102EB000059800F09FF9054404E030205A46179920
:102EC00090476D1C0099481E00900029F5DC08E031
:102ED000029802995A460078491C02911799904726
:102EE0006D1CBAF10001AAF1010AF1DC65E10000F4
:102EF00009280100303132333435363738396162D0
:102F00006364656600000000303132333435363793
:102F100038394142434445460000000000F058F96A
:102F20000544761C307800287FF4ECAD19B02846B3
:102F3000BDE8F08F620700D4062709F1070222F0EE
:102F4000070CFCE80223E14603F000485FEA080CA6
:102F500002D00FF2702C0DE05FEA045C02D50FF294
:102F6000682C07E05FEAC47C02D00FF2602C01E01D
:102F7000AFF2700C4FF0FF3823F00043CDF850C093
:102F800065280CD006DC452809D046281DD04728E6
:102F90003DD13DE0662818D067287ED138E0002179
:102FA000112F01DB112000E0781CCDE9000106A9FA
:102FB0000EA8FFF7DDFCDDE90F010E9A0391002159
:102FC000009207F1010A04914DE04FF00040009794
:102FD000CDE9011006A90EA8FFF7CAFCDDE90F0232
:102FE00003920E9B11990022DDF80CA0009304922D
:102FF00011B9791C00EB010AB7EB0A0004D4C0F147
:10300000FF3007F1010A0490AAEB0700019044E0A9
:10301000012F00DA01270021112F01DD112000E02E
:103020003846CDE9000106A90EA8FFF7A1FCDDE9AD
:103030000F010E9A0391002104910092BA462107D4
:103040000CD40399514500DA8A46BAF1010F05DD27
:10305000009AAAF10101515C302908D0B84202DA85
:1030600010F1040F06DA0121CDE9011015E0AAF1F3
:103070000101E9E7002805DC049901440491AAEB69
:10308000000102E0411C514500DD8A460499401AC6
:10309000401C01904FF000400290200704D401989A
:1030A000504501DBCDF8048000208DF84F000298D8
:1030B0000DF14F07B0F1004F25D02B200E90029854
:1030C0004FF0020800280CDA404202902D200E90AA
:1030D00007E00A210298FDF70BF93031029007F85A
:1030E000011DB8F10001A8F10108F2DC02980028E6
:1030F000EFD1791E0E980870307800F0200040F073
:10310000450007F8020D12A8C01B00F1070814982B
:10311000007800B1012000EB0A01019801EBE07199
:1031200005984144401A401E0590E00306D45B46D2
:103130002146179A059800F05DF805441498007828
:1031400018B15A46179990476D1CE00324D55B4689
:103150002146179A059800F04DF805441CE00498A4
:10316000002807DBDDE90301884203DD0098405CAD
:10317000179901E0179930205A469047049805F1B5
:103180000105401C04900198401E019004D12E209E
:103190005A46179990476D1CBAF10001AAF1010A2D
:1031A000DDDC05E017F8010B5A46179990476D1CB6
:1031B000B8F10001A8F10108F4DC5B462146179A3A
:1031C0000598ABE62D0000002B0000002000000059
:1031D0002DE9F041044600251E461746880404D414
:1031E00005E039462020B0476D1C641EF9D52846FD
:1031F000BDE8F0812DE9F041044600251E469046C9
:10320000C80301D5302700E02027880404D505E055
:1032100041463846B0476D1C641EF9D52846BDE8C6
:10322000F081000008B50020009091480078432804
:1032300012D1FEF7B9F88FA200211020FEF742F953
:1032400001208F49087000208E4908708E4908704F
:1032500001208E49087000908948007801287BD1B0
:1032600083480078002879DD81480078092875DCDA
:103270008448007806286FDA7D4801788448814ABE
:10328000127881547F480078401C7E4908700846B7
:10329000007801280BD10978491E7D4B5A5C794989
:1032A00009780907080E01230221FEF7D9F97548AC
:1032B000007802280CD173490978491E744B5A5C76
:1032C000704909780907080E01230221FEF7C8F9A1
:1032D0006C48007803280CD16A490978491E6C4B68
:1032E0005A5C684909780907080E01230221FEF794
:1032F000B7F96448007804280CD162490978491E5E
:10330000634B5A5C5F4909780907080E01230221C3
:10331000FEF7A6F95B48007805280CD159490978D1
:10332000491E5B4B5A5C574909780907080E01236F
:103330000221FEF795F95348007806288FD15149AC
:103340000978491E524B5A5C4E4909780907080E04
:1033500001230221FEF784F989E0FFE74448007861
:103360004228F9D14B4880790028F5D148480078A7
:10337000012813D14648407801280FD1444880786D
:1033800001280BD14248C078012807D14048007974
:10339000012803D13E484079012823D03C480078D9
:1033A0003D490978884237D1394840783A494978C7
:1033B000884231D1364880783749897888422BD184
:1033C0003348C0783449C978884225D130480079DB
:1033D0003149097988421FD12D4840792E494979D0
:1033E000884219D1FDF7E0FF2CA200211020FEF742
:1033F00069F800202549087000902B48FEF71CFE54
:10340000FDF7A4FC41F28830FDF738FB0020FEF701
:1034100013FEFDF791FC16E0FDF7C6FF23A2002185
:103420001020FEF74FF80020184908700090FDF7B3
:103430007BFCFDF787FA40F2DC50FDF71FFBFDF740
:103440006BFCFDF775FAFDF7AFFF1BA200210846E4
:10345000FEF738F81BA202210020FEF733F81CA269
:1034600004210020FEF72EF800201C49087008BD3A
:103470008C0F0020C7EBCAE4C8EBC3DCC2EB000032
:10348000710F0020790F00208D0F00208E0F00207B
:103490006B0F0020640F0020720F0020C3DCC2EB12
:1034A000D5FDC8B70000000000003443C3DCC2EB08
:1034B000B4EDCEF3000000004B3120C0B6D1C020E7
:1034C000200000004B3320CBA2BFA820200000002A
:1034D0004B3620C3DCC2EB2020000000980F0020F8
:1034E00070B504460D46E0B2FEF792FD204670BD71
:1034F000FDF77CFFFDF734FCFDF700FAFEF72CFD2D
:10350000FEF782FA4FF4165000F08EF8FDF7DAFA63
:1035100030490860FEF78CFEFDF768FCFDF7F0FB14
:10352000FEF786FD55E0FDF7EBFC2B4908702B48B4
:10353000007800282ED108460078012809D1FDF72F
:1035400033FF27A200210220FDF7BCFF0220234900
:10355000087021480078032809D1FDF725FF23A230
:1035600000212020FDF7AEFF03201C4908701A48F7
:10357000007806280ED1FDF717FF1EA2002108468D
:10358000FDF7A0FF1FA202210020FDF79BFF0420F2
:103590001249087011480078022801D1FDF7DCF9C2
:1035A0000E480078032801D1FEF744FA0B48007852
:1035B00004280CD1FF2008490870FDF7A1FC06493A
:1035C0000870FFF72FFEFDF79BFC03490870FDF71D
:1035D000C3F9A8E7580F00208C0F0020980F002097
:1035E000617070B7A2CBCDC3DCC2EB00C7EBCBA23E
:1035F000BFA800004320C7EBCAE4C8EBC3DCC2EBA2
:10360000000000004220C8B7C8CFC3DCC2EB2000D6
:1036100010B50246012000E050430B1EA1F1010449
:10362000E1B2F9D110BD000010B586B00446012109
:103630000420FEF7E9FA01214804FEF7D5FA042038
:10364000ADF8100003208DF8120018208DF813003B
:1036500004A92648FDF742FA0820ADF810004820DA
:103660008DF8130003208DF8120004A91F48FDF700
:1036700035FA00940020ADF80400ADF80600ADF86E
:103680000800ADF80C000C20ADF80A006946184897
:10369000FFF766F8012240F225511548FFF73AF886
:1036A0004FF4A060FDF776FE26208DF81400002070
:1036B0008DF8150001208DF816008DF8170005A86B
:1036C000FDF730FE01210A48FEF7E1FF41F61F41F8
:1036D0006320FEF71DFE00200649088000214FF000
:1036E0008040FEF746FE06B010BD00000008014015
:1036F000004400401C000020183700080000002093
:10370000B00F00009C08000860420008B00F0020C5
:1037100020070000602900081200012005010203B3
:103720000404000A1C0607080902040608000152E6
:10373000F8083233061004100C0603711D200440F3
:10374000C07803200500043F0403100800007088BF
:10375000FC08302E100E1820FF211E0000F008F08B
:1037600000E0183E4005211C031E111388700FE075
:103770000C1E2123241927211010160E702005E09D
:103780001804026A300B071820400000020418E0F9
:1037900069200420180770300E4080F080404000FF
:1037A0000202010F01022832F0D4100401011F04AB
:1037B0007145C00480B0705642010171B983303048
:1037C0002C3008601804006018063E1006E010084F
:1037D00008107210070F102020100FF04610001074
:1037E0000620203F20202D3004700808C21006302B
:1037F00028242221E9100630088888480820061865
:1038000020202011CC33C020321407070424243F89
:10381000243E1120160863431921202405E0108856
:103820008810430F11103406380808C83883323F17
:103830008D4370886080071C222121221C90100675
:103840000031222211901161C2C0C26280C65108AB
:1038500010044020107014070102040810203031B9
:103860000143000401130000152240321125130406
:1038700002F2137048D135431330360F1406C030AE
:10388000C828E80020080718272423140B6F2238C3
:103890007E200D203C23020227382008F88888FF6C
:1038A000250E21D017C03010270838AD153034064A
:1038B000080008F808403120154021303004E8089D
:1038C0001030A004232018102300035E2140363856
:1038D000ED200520221E024011A41009F808203F07
:1038E0002101012125220852958051112006C08016
:1038F00080807F0E2007F888C028180870400501D6
:10390000263820405200A0132030201004F800F880
:103910005417203F60214F4004F830C0601220E46B
:10392000363F5F21B025EF41B021D033F0008083D6
:10393000010020300718242438504FC0250131C021
:1039400034040C3020B021C1373820B032189F42E7
:10395000188231A041D023001F9034081F0008783E
:10396000880000F1100407380E60119B12F8B54072
:103970001D00033C0700073C0300081868808068AE
:10398000180820302C03032C30200838C82F515041
:10399000218F213F18042038265129494C0400FE6C
:1039A000020803267FE85804000C301F18050001A8
:1039B00006382A111D3EFEA903274040301004009E
:1039C000000412FE04E503528001F2001D311619B5
:1039D000C01806242222223F0032000F5B003FC0A5
:1039E000312119D01A0ED04320114B4388F81022F0
:1039F00010B35140121F3F2322131E1AF0428618A3
:103A0000D041772408006B94949493600B310F1588
:103A10008041F3BC0480989880035200125901152C
:103A20003B31311406203F24022D8F2930ADB003E5
:103A300061D7214B2103112BC16071A045A031201A
:103A40002D400493FFA1E04280E033A0FF4C3150B1
:103A500019A18004200001C0133324012219E0467B
:103A6000E02125F252004D428060151031EC2568AE
:103A70001C05010E300872042170256318040F30F4
:103A80000C4F320F2C41A16007312E0E3120003037
:103A90003C0580818E70A20455A73C050021302C86
:103AA0008004215F4A7C012B003F015C040000FF81
:103AB000B9053108340402027CB04F404060041E56
:103AC0000236054D60054DCF0518141010FF1090FB
:103AD000003F48484444444270000444827F972396
:103AE000FF490111411C052030AC6312054C04F85C
:103AF000090E8803140E22672212928040211608B4
:103B0000162140081C0E1010D0FF9014E4AFA4A49E
:103B1000A4AFE45F0413040377240A894B2A1A0E26
:103B20001A2A4B88281C0520FF2020530337FF0842
:103B30009A18151030100F884821110D030D11210E
:103B40004181001060028CC21AF2A522F8B1240D46
:103B500004047E018047300F10270047E020074013
:103B60004042CC0090013806FF101116107A14075D
:103B70001028603F101041280C40F0002424A4FEBF
:103B80002322003E5E17223EFF10070601FF0106BA
:103B900040BD127FC31E411F031EFCFB041C081402
:103BA000155694543414A0061640641D2C061C04AB
:103BB00041817F320613050310100EEF242480E4A8
:103BC0009C105454FF547C101C400E7F2151261829
:103BD000274445455F454544A0300B109252321EA4
:103BE0003252921210A0440C00211840807F0830FD
:103BF000040931401E10400542F8E0128061111D99
:103C00001D8E0311FA1107400680FE8282FE0531E7
:103C1000E11586300520BF403F23224F281C0CFEB3
:103C2000225A8620102824E324287206157A2006BA
:103C3000040827110DA012055F20040002FA401CA1
:103C4000084020504C434C5010074410081848843A
:103C5000443F404458414E60584740204C070004C0
:103C6000C40404FCE00525201F48400C0410057F17
:103C700041414120211F1006445454547F042A44DA
:103C80001F580C7F201000FF15151555957F00203B
:103C9000109020988888E98E8888A8980002428130
:103CA000B63C07844B28102847E90329D81724FC81
:103CB0005E15673D4F043006020242827F082D8068
:103CC000072C040202C263042282014E02670451DF
:103CD000043D78062C0F201808EAACA8A8AFA8A8C5
:103CE000ACEA08280908223E423807FF02021222E5
:103CF0001E9F13F2920122FE0512F2502C040404BE
:103D0000FFAB06140707040444847FB0C280010D92
:103D1000109E082405020C80607533C8085F1B02E2
:103D200002401D2C083C0506010618E9061C040883
:103D300048886107370090A81940100620100C032E
:103D400004293E433F062D3F0531A85EFF37073566
:103D5000B91128323FC11C05780002E2F70452FE77
:103D60000412E2E12AFF6312160443024C423D11A1
:103D70000629E01C05090AC8084C082C061F00107B
:103D8000201F22031C04182641DB053D10064208B3
:103D90007E3EF000031F1F0831083C050E014080E5
:103DA0009203480440301E44319E2C05008181411D
:103DB0001D034E011F032E81DE051808FA02FE4086
:103DC00020D8176611983D1C037E678103297081F6
:103DD000403E1030032101327F0615803DA0035C78
:103DE0000A1000FC24E4242223E2A00310078360CD
:103DF0001F804126A015201C04020CC0A40820042A
:103E0000484848C2168ACF227F982C091E925E200D
:103E1000173846F11D092FF8075F033EE25F032DB7
:103E2000F204140DFF2011090503FF0305091120F9
:103E3000B0280584E41C07231C04A4642460031D2B
:103E400053088BFF00221D0D06538292012EFE3C6B
:103E5000054C0E404022241048807F04081824227C
:103E6000AF041DAA068C05E21CE000BE082E0C194A
:103E7000081D5D072D60042009001088C43300BEB2
:103E8000AA0122BEAF3160530A126221301C049095
:103E9000888620054F838CD90825FD5707005D1DB6
:103EA0001A031C0F84E45C44C42010E82724E43483
:103EB0002CE0FF0414057F10103FA65C0709093FA2
:103EC00049897F40039D35051D4605239048432DB4
:103ED0007F0A5E8060031C04FC24A4FF063FA362EB
:103EE000880A4C0D1F2058475048454245485040CD
:103EF0007F075C06F2121212F268072DF9031627EB
:103F00000F3E27FF034DE0049D80033D4004AD803C
:103F1000031C080C442414040506A40424052444AA
:103F2000140CC11DB8032E41BD034E41CE0526FC25
:103F30005B3F3DA687033DC0041310136F12FF7350
:103F40001A12A82C041094539B04140410007EF63B
:103F50004E7EF7053DBC053DBE051D20071C0ECC61
:103F60004A49484ACC18007F88888482D80A113987
:103F70001F5292A004427E101F102C420533A465EC
:103F80005F1C05A4340C003A053C0A29241452890C
:103F90007F040A1190043E009B032E92A603269EE6
:103FA000C01D40051EFC2B061247043EFC40043D8C
:103FB0009D053D06053DA0051C042060209D051EB5
:103FC000101D0915901EF8D0031C0AE4040FF40418
:103FD00004F444CF610611C03C0D407D44447D444F
:103FE00045447C44457CAF063FC2B23C043D42049C
:103FF0002DF8063D990A6E419E031D2105255D2C75
:104000000412121EE80B3C0EFF00100E013F0101CE
:10401000FF11211F0068054D680433FF44016950FA
:104020002D49062DFF0A2580138C44821795A6661C
:104030001C058444940C0F0724067A414143422E08
:104040007B43F82020040002F2832DFF0839202D45
:10405000B7031D39041D09038C0704244484649CA0
:1040600060041E1061068F824C600459201DB20C42
:104070001D68065AFC201421404F4442407F4244B0
:1040800043400088681FC80810C85452D1129408D1
:10409000D01000091909FF05853C0592FF005FE07B
:1040A000061D800630066448487F48043E4080066E
:1040B0008E117F074DC00537809E843E9EC9071034
:1040C000057F209484CE1A0F301B84848F3C0CF81B
:1040D00007F0A0904C5724A4544CBA081407FF00D2
:1040E0001F809252C62E12370B130484015C06FC0B
:1040F0004030CC0B490B1DFF058F100840041C04F9
:1041000090523401082C06345280708F6A0B1C09BF
:1041100000829A566322528E58043C04330C332991
:104120000C90057FFC44400215F83C0A4844483C8A
:10413000500040007F590A200AFE0028F82808FE97
:1041400008AA02340AF8AE88C2808280FE80D30CAE
:10415000EA127E8200D6B8CEC6C4A3BFE9B2E2CAD4
:10416000D4B3CCD0F2BCFCCCEDBCD3C9BEB3FDD132
:10417000E9D6A4C7EBB0B4CAD6D5FDB3A3D4D9D27F
:10418000BBB4CEB6D4B1C8C1BDB3C9B9A6CAA7B075
:10419000DCC9FAB0E5BCF5B1A3B4E6C2BCC8EBB566
:1041A000C3B7D6C8B7C8CFB7B5BBD8C7E5BFD5BFAB
:1041B000E2D6C7C4DCBCD2BED3CABDC0B6D1C0CB68
:1041C000A2BFA8C3DCC2EBBBB6D3ADCAE4B4EDCE8C
:1041D000F3D0DEB8C4CAFDC6A5C5E4002021222361
:1041E0002425262728292A2B2C2D2E2F3031323317
:1041F0003435363738393A3B3C3D3E3F4041424307
:104200004445464748494A4B4C4D4E4F50515253F6
:104210005455565758595A5B5C5D5E5F60616263E6
:104220006465666768696A6B6C6D6E6F70717273D6
:104230007475767778797A7B7C7D7E6B0E81070C3E
:10424000051A02020303610F6C05900F0020FD0E9A
:104250003C0C972DC0A71918919800ABCD970F0073
:04000005080000ED02
:00000001FF
